:020000040800F2
:10000000285400204D020008DD2400089323000836
:10001000D9240008E5030008092D000800000000AD
:10002000000000000000000000000000E3240008C1
:100030001305000800000000E1240008E524000882
:1000400067020008670200086702000867020008EC
:1000500067020008670200086702000867020008DC
:1000600067020008670200086702000867020008CC
:1000700067020008670200086702000867020008BC
:10008000E9030008F9030008670200086702000896
:10009000670200086702000867020008670200089C
:1000A000670200086702000867020008670200088C
:1000B000670200086702000867020008670200087C
:1000C000670200086702000867020008670200086C
:1000D0006702000867020008112C00086702000888
:1000E000670200086702000867020008670200084C
:1000F000670200086702000867020008670200083C
:10010000670200086702000867020008670200082B
:10011000670200086702000867020008670200081B
:10012000670200086702000867020008670200080B
:1001300067020008000000000000000067020008DD
:1001400067020008670200086702000867020008EB
:1001500067020008670200086702000867020008DB
:1001600067020008670200086702000867020008CB
:10017000670200086702000867020008000000002C
:1001800000000000670200080000000000000000FE
:10019000670200080000000000000000670200087D
:1001A00000000000000000000000000067020008DE
:1001B000670200086702000867020008670200087B
:1001C00067020008DFF80CD000F0FAF8004800479A
:1001D000F5300008285400200246D2E84F0F411C99
:1001E000C2E8431F03B1F8E77047024652E8000F28
:1001F000411C42E8001303B1F8E77047024652E899
:10020000000F42E8001303B1F9E77047024652E8D5
:10021000000F830103D3BFF32F8F0020704700F03E
:100220000040084342E8000303B1F0E7704702468C
:1002300052E8000F800103D2BFF32F8F00207047D8
:1002400042E8001303B1F3E70120704706488047F6
:1002500006480047FEE7FEE7FEE7FEE7FEE7FEE7AB
:10026000FEE7FEE7FEE7FEE7AD250008C501000852
:100270002DE9F05F0546002092469B4688460646DB
:10028000814640241BE0284641464746224600F06E
:1002900087F853465A46C01A914110D31146184662
:1002A000224600F06EF82D1A67EB01084F462246F1
:1002B0000120002100F065F817EB00094E41201ED7
:1002C000A4F10104DFDC484631462A464346BDE836
:1002D000F09F40EA01039B0703D009E008C9121F01
:1002E00008C0042AFAD203E011F8013B00F8013BF0
:1002F000521EF9D27047D2B201E000F8012B491E1C
:10030000FBD270470022F6E710B513460A460446B2
:100310001946FFF7F0FF204610BD421C10F8011BE4
:100320000029FBD1801A704710B5002200E0521C52
:10033000835C8C5CA34201D1002BF8D1D8B2E1B22E
:10034000401A10BD034611F8012B00F8012B002ABA
:10035000F9D11846704730B50B46014600202022DF
:10036000012409E021FA02F59D4205D303FA02F5C2
:10037000491B04FA02F52844151EA2F10102F1DC22
:1003800030BD202A04DB203A00FA02F10020704739
:100390009140C2F1200320FA03F3194390407047C3
:1003A000202A04DB203A21FA02F00021704721FACA
:1003B00002F3D040C2F12002914008431946704731
:1003C000064C074D06E0E06840F0010394E80700A2
:1003D00098471034AC42F6D3FFF7F8FEF037000828
:1003E0001038000800BFFEE710B5024800F0F6FA2A
:1003F00010BD0000A809002010B5024800F0EEFA78
:1004000010BD0000080A00200146087810381823A3
:10041000B0FBF3F20848805CC865032A05D9086878
:100420006FF30900001D886503E008686FF3090099
:100430008865886D704700009837000801460020E5
:100440008A6A8B69CBB932B1012A0DD0022A03D056
:10045000032A10D10EE000BFCB6A03F08073B3F122
:10046000807F00D1012007E0CB6AB3F1C07F00D1CB
:10047000012001E000E000BF34E08B69B3F5005FCC
:100480001AD132B1012A07D0022A03D0032A11D18E
:100490000AE000BF01200EE0CB6A03F08073B3F1E5
:1004A000807F00D1012006E0CB6AB3F1C07F00D18C
:1004B000012000E000BF15E032B1012A05D0022A78
:1004C00004D0032A0CD103E000BF00BF012008E0E4
:1004D000CB6A03F08073B3F1807F00D1012000E08C
:1004E00000BF00BF704730B50468246824F480243E
:1004F00005682C60046863608468402C04D104683B
:10050000A2600468E16003E00468A1600468E2603E
:1005100030BD704772B600BFFEE700000146074AD3
:1005200012780AB9002008E0054AC1F3C623D25C5C
:10053000C1F30223DA4002F00100704700440020BA
:100540008043002070B500BF0C48866900F00CFAAB
:10055000054600BF294609481830FFF74FFE0446FC
:1005600000BFB442F0D1A54206D200BF034810300C
:10057000FFF73BFE00BF00BF284670BD00440020CF
:100580002DE9F04104460D4616462046FFF7C6FF0A
:1005900010B90120BDE8F081FFF7D4FF0746A4B2EF
:1005A00000BFEFF3058010B14FF4002000E0002001
:1005B000044344F0407033462A46394600F08EF832
:1005C00080464046E6E72DE9FC4704468846154646
:1005D000B8F1000F01D0802D02D90020BDE8FC87C2
:1005E0002046FFF79BFF08B90120F7E7FFF7AAFFB6
:1005F0008246A4B200BFEFF3058010B14FF4002093
:1006000000E000200443464645B900231A465146FF
:10061000204600F063F807463846DFE7082D16D875
:100620000020009001902A4631466846FFF751FEAF
:100630004FF4E02000EA0540044344F04070514686
:10064000DDE9002300F04AF807463846C6E700F027
:10065000A9F94FF4E02101EA004930680090706880
:1006600001900836083D44EA090444F08070514680
:10067000DDE9002300F032F807460FB90020ADE7AE
:100680004FF6017049EA000410E03068009070688D
:1006900001900836083D51462046DDE9002300F070
:1006A0001DF80746641C0FB9002097E7082DECD809
:1006B0000020009001902A4631466846FFF709FE67
:1006C00024F47F4444EA052444F000705146DDE9F7
:1006D000002300F003F8074638467FE72DE9FF4F77
:1006E00081B0884691469A464FF0070B51E000BF13
:1006F0002E48FFF77AFD064606F03F002C4901EB35
:100700000014B0094FF4700101EA00510091DDE9D5
:10071000001008434FF0805101EAD80108434FF020
:10072000005101EA990108434FF0804101EA5A0162
:10073000084340F04065294604F10C00FFF766FDD0
:10074000054605F0806010B385F0806585F00045B2
:1007500005F0004728F000403843206029F00040B1
:10076000384360602AF000403843A060294604F115
:100770000C00FFF75CFD48B100BF0C48001DFFF7FF
:1007800034FD00BF012005B0BDE8F08F04E0ABF1FF
:10079000010BBBF1000FAAD100BF00BF0348083016
:1007A000FFF723FD00BF0020EDE700000444002018
:1007B000803F0020F0B506460C461546FF2C01D2BE
:1007C000FF2D01D30020F0BD002200231AE00120FC
:1007D00098403040A0B1214610E002EBD1000B4F11
:1007E000385C01F0070C012707FA0CF7384302EBDD
:1007F000D107DFF818C00CF80700491CA942ECD952
:1008000020325B1C042BE2D30120DCE78043002074
:100810002DE9F05F82468946002041490870802119
:100820004048FFF76FFD18213F4802F0F6FB804675
:100830003B48006A3D49884208D00846384908626A
:100840000846A0F802800120C8610FE034484088C3
:10085000404506D03248A0F8028001203049C861E6
:1008600004E02F48C069401C2D49C8612C48C0696C
:1008700001280BD100202A49487048608860C86070
:100880004FF480612A48FFF73DFD0FE000270BE0A1
:10089000274800EB0715E86800F0806018B1E868A9
:1008A00020F04060E8607F1C402FF1D31C48C069F5
:1008B00001280FD100F064F804461CB100F05AF88A
:1008C000064600E00026164846610020144988616B
:1008D000086102E000F054F80446ECB1FE22002169
:1008E0005046FFF767FFEF2211460F20FFF762FF28
:1008F000FE2211460420FFF75DFFFFF723FE83462B
:10090000074800235946C2690A48FFF7E7FEB9F1D4
:10091000000F01D000F010F82046BDE8F09F000065
:100920000044002080430020D83700086B27A5E151
:10093000803F002000FF000310B50948007808B18F
:10094000012010BD012006490870FFF7FBFD044699
:1009500000231A4621460348FFF7C0FE0120F0E7B6
:100960000044002001FF0003014840687047000078
:10097000001000E001480068704700000C000020F3
:100980000648006840F08070044908600448006828
:1009900040F001000249086001207047FCED00E0D2
:1009A000001000E010B50248FFF716FC10BD000073
:1009B00001440020014691F83500022803D0802030
:1009C000486501207047052081F8350008680068F7
:1009D00020F001000A6810600020F3E7F8B5044633
:1009E000002000908C4800684FF41651B0FBF1F7DE
:1009F000A56D2E6894F85C1008208840304098B1AE
:100A00002068006800F0040070B12068006820F0E1
:100A100004002168086094F85C1008208840A860F1
:100A2000606D40F00100606594F85C100120884022
:100A3000304068B12068406900F0800040B194F80F
:100A40005C1001208840A860606D40F00200606585
:100A500094F85C1004208840304068B12068006839
:100A600000F0020040B194F85C1004208840A860B7
:100A7000606D40F00400606594F85C1010208840C0
:100A8000304078B32068006800F0080050B394F854
:100A90005C1010208840A8602068006800F4802066
:100AA00080B12068006800F4002028B9206CC8B12B
:100AB0002046216C884715E0A06C98B12046A16CB7
:100AC00088470FE02068006800F4807028B920682B
:100AD000006820F0080021680860206C10B12046F2
:100AE000216C884794F85C10202088403040002812
:100AF00065D02068006800F0100000285FD094F8EE
:100B00005C1020208840A86094F83500052828D182
:100B10002068006820F0160021680860206840699D
:100B200020F0800021684861206C08B9A06C28B1D1
:100B30002068006820F008002168086094F85C10C4
:100B40003F208840A86000BF002084F8340000BF28
:100B5000012084F83500206D10B12046216D8847B2
:100B6000F8BD2068006800F4802080B1206800682B
:100B700000F4002028B9606C10B12046616C8847F1
:100B80001DE0E06BD8B12046E16B884717E0206894
:100B9000006800F4807068B92068006820F01000D8
:100BA0002168086000BF002084F8340000BF0120E5
:100BB00084F83500E06B10B12046E16B8847606D2A
:100BC00038B3606D00F00100F0B1052084F8350005
:100BD0002068006820F001002168086000BF0098CC
:100BE000401C0090B84200D905E02068006800F081
:100BF00001000028F3D100BF00BF002084F83400BA
:100C000000BF012084F83500E06C10B12046E16C93
:100C1000884700BFA4E700000C0000202DE9F04148
:100C20000446002500F0B8F9074614B90120BDE8D4
:100C3000F081606A00B100BF00BF002084F834007A
:100C400000BF022084F835002068006820F0010011
:100C5000216808600AE000F09FF9C01B052805D94B
:100C600020206065032084F83500E0E720680068F4
:100C700000F001000028EED12068056821480540F9
:100C8000D4E901010843E168084321690843616927
:100C90000843A1690843E1690843216A0843054301
:100CA000606A042803D1D4E90B0108430543206896
:100CB00005602068456925F00705606A0543606A9C
:100CC00004280DD1A06A0543E06A48B12046FFF729
:100CD000B5FB28B140206065012084F83500A6E707
:100CE000206845612046FFF78FFB064694F85C10AC
:100CF0003F208840B06000206065012084F8350006
:100D0000002094E73F8010F02DE9F04704460D469F
:100D100016461F464FF00008D4F8589000BF94F8CC
:100D20003400012802D10220BDE8F087012084F8B8
:100D3000340000BF94F83500012825D1022084F842
:100D40003500002060653B46324629462046FFF7C5
:100D5000CAFB94F85C103F208840C9F8080020685E
:100D6000006840F0160021680860206C28B12068F7
:100D7000006840F00800216808602068006840F0C2
:100D800001002168086006E000BF002084F83400FC
:100D900000BF4FF002084046C6E70000F8B5024623
:100DA0000B460025002400200021D7E0012606FA8A
:100DB00001F51E6806EA0504AC4273D15E68012E97
:100DC00008D05E68022E05D05E68112E02D05E68E3
:100DD000122E13D190684F000326BE40B0434F003F
:100DE000DE68BE4030439060506801268E40B043BC
:100DF0001E79C6F300168E4030435060D0684F0015
:100E00000326BE40B0434F009E68BE403043D060D2
:100E10005E68022E02D05E68122E13D1CF0802F156
:100E2000200656F827004E07F70E0F26BE40B043A7
:100E30004F07FF0E1E69BE403043CF0802F1200667
:100E400046F8270010684F000326BE40B0431E79C5
:100E500006F003064F00BE40304310605E6806F0A7
:100E60008056B6F1805F78D100BF002600963D4ED7
:100E7000366846F480463B4F3E603E46366806F490
:100E80008046009600BF00BF374E8F0856F82700F7
:100E90008E07370F0F26BE40B043344EB24202D108
:100EA00000261FE059E0324EB24201D1012619E07E
:100EB000304EB24201D1022614E02F4EB24201D18F
:100EC00003260FE02D4EB24201D104260AE02C4E3B
:100ED000B24201D1052605E02A4EB24201D10626D2
:100EE00000E007268F073F0FBE4030431E4E8F089D
:100EF00046F82700244E3068A0435E6806F480362A
:100F0000B6F5803F00D120431F4E3060361D30685B
:100F1000A0435E6806F40036B6F5003F00D12043DA
:100F2000194E361D3060361D3068A0435E6806F4E9
:100F30008016B6F5801F00D12043134E083630606E
:100F4000361D3068A0435E6806F40016B6F5001F33
:100F500000D120430C4E0C363060491C1029FFF4A0
:100F600025AFF8BD44380240083801400000024077
:100F70000004024000080240000C02400010024041
:100F80000014024000180240003C01400AB1816197
:100F900001E00B048361704701480068704700005E
:100FA0000000002070B504460CB9012070BD94F813
:100FB0003D0028B9002084F83C00204600F0DAF813
:100FC000242084F83D002068006820F0010021689A
:100FD00008602068006840F40040216808602068CC
:100FE000006820F400402168086000F0EBFA054634
:100FF0005C496068884206D85B48854201D201207E
:1010000007E0002005E05948854201D2012000E0B8
:101010000020012800D1C9E75548B5FBF0F620684B
:10102000406820F03F003043216848604D496068C7
:10103000884201D8701C07E04FF4967070434FF45B
:101040007A71B0FBF1F0401C2168096A21F03F0180
:1010500008432168086243496068884214D8681EC2
:1010600061684900B0FBF1F0401CC0F30B0004289C
:1010700001D204203DE0681E61684900B0FBF1F038
:10108000401CC0F30B0034E0A06838B9681E6168EA
:1010900001EB4101B0FBF1F0401C0AE0681E616801
:1010A00001EBC10202EB0111B0FBF1F0401C40F476
:1010B0008040C0F30B0008B901201AE0A06848B9CD
:1010C000681E616801EB4101B0FBF1F0401CC0F308
:1010D0000B000CE0681E616801EBC10202EB01111C
:1010E000B0FBF1F0401CC0F30B0040F4804040F432
:1010F00000402168C9694CF6FF729143084321689A
:10110000C861D4E9070108432168096821F0C001DA
:10111000084321680860D4E90310084321688968FE
:1011200048F2FF329143084321688860D4E9050101
:1011300008432168C96821F0FF0108432168C8609D
:101140002068006840F001002168086000202064E9
:10115000202084F83D000020206384F83E0000BF7A
:1011600024E70000A086010080841E0000093D00E5
:1011700040420F0010B586B00446142101A8FFF7C5
:10118000C1F81B49206888422FD100BF0020009081
:101190001848006840F002001649086008460068D8
:1011A00000F00200009000BF00BFC020019012209C
:1011B000029001200390032004900420059001A9CF
:1011C0000D48FFF7EBFD00BF0020009009481030EC
:1011D000006840F4001007491031086008460068B4
:1011E00000F40010009000BF00BF06B010BD00006A
:1011F00000540040303802400004024003480068B8
:10120000034909780844014908607047000000203C
:101210000800002010B50D48006840F400700B492C
:1012200008600846006840F480600860084600686E
:1012300040F480700860032000F0A2F8002000F065
:1012400007F800F02BF8002010BD0000003C024021
:1012500070B504460E4800784FF47A71B1FBF0F097
:101260000C490968B1FBF0F5284600F097FC08B17D
:10127000012070BD102C07D200222146501E00F024
:1012800041F80548046001E00120F2E70020F0E7A2
:10129000080000200C0000200400002008B500BF5A
:1012A000002000900E48006840F480400C4908601F
:1012B0000846006800F48040009000BF00BF00BFF7
:1012C00000200090081F006840F08050091F08604F
:1012D0000846006800F08050009000BF00BF08BDC5
:1012E0004438024001460846002809DB00F01F038D
:1012F00001229A4043099B0003F1E023C3F8002137
:1013000000BF70472DE9F05F80460D461646002766
:1013100001F020FD074639462A46334601F0070012
:10132000C0F1070ABAF1040F02D94FF0040A01E034
:10133000C0F1070AD14600F1040ABAF1070F02D240
:101340004FF0000A01E0A0F1030AD4464FF0010A71
:101350000AFA09FAAAF1010A0AEA020A0AFA0CFAD6
:101360004FF0010B0BFA0CFBABF1010B0BEA030B7B
:101370004AEA0B042146404601F0F4FCBDE8F09F28
:1013800000BF00F00702064B19684FF6FF03194033
:10139000044B0B4343EA0221014B196000BF704725
:1013A0000CED00E00000FA0538B5002400BF002075
:1013B00000901D48006840F080501B4908600846B6
:1013C000006800F08050009000BF00BF0120174966
:1013D0000864FFF7E1FD044607E0FFF7DDFD001BB1
:1013E000B0F57A7F01D9032038BD1148406800F478
:1013F0008030B0F5803FF0D101200C494864FFF700
:10140000CBFD044607E0FFF7C7FD001BB0F57A7F70
:1014100001D90320E8E70648406800F40030B0F541
:10142000003FF0D10020DFE74038024000000E42CC
:101430000070004070B504460D460CB9012070BD27
:101440005848006800F00F00A84209D255490D70B5
:101450000846006800F00F00A84201D00120EEE726
:10146000207800F0020002281DD1207800F004004E
:10147000042805D14C48006840F4E0504A4908600F
:10148000207800F00800082805D14748006840F49B
:101490006040454908604448006820F0F000A168B9
:1014A000084341490860207800F00100A8B3606853
:1014B000012807D13C4808380068C0F34040B8B95B
:1014C0000120BCE76068022802D06068032807D1C9
:1014D000354808380068C0F3406048B90120AEE7DD
:1014E000314808380068C0F3400008B90120A6E779
:1014F0002D48006820F00300616808432A4908600D
:10150000FFF74AFD064609E0FFF746FD801B41F262
:101510008831884202D9032091E707E02248006819
:1015200000F00C006168B0EB810FEDD11D48006840
:1015300000F00F00A84209D91A490D70084600684A
:1015400000F00F00A84201D0012078E7207800F0D9
:101550000400042807D11448006820F4E050E16832
:10156000084311490860207800F00800082808D1D5
:101570000D48006820F46040216940EAC1000A4932
:10158000086000F03FF808490968C1F30311074AF1
:10159000515CC8400649086006480068FFF758FEDD
:1015A00000204CE7003C024008380240A037000809
:1015B0000C00002004000020014800687047000073
:1015C0000C00002000B5FFF7F7FF04490968C1F3DC
:1015D0008221034A515CC84000BD00000838024027
:1015E000B037000800B5FFF7E7FF04490968C1F309
:1015F0004231034A515CC84000BD00000838024037
:10160000B03700082DE9F047002400250026A14648
:10161000A2463F48006800F00C0030B1042807D013
:10162000082808D00C286BD138E0DFF8E8A06AE081
:10163000DFF8E4A067E03648001F006800F03F04D0
:101640003348001F006800F4800078B13248304908
:10165000091F0968C1F38811A0FB017001462246E9
:1016600000233846FEF704FE05460DE029482849C8
:10167000091F0968C1F38811A0FB017122460023EC
:101680003846FEF7F5FD05462148001F0068C0F307
:101690000140401C4600B5FBF6FA34E01C48001F30
:1016A000006800F03F041A48001F006800F4800042
:1016B00078B119481649091F0968C1F38811A0FBC0
:1016C00001700146224600233846FEF7D1FD05464B
:1016D0000EE010480E49091F0968C1F38811A0FBEC
:1016E00001700146224600233846FEF7C1FD05463B
:1016F0000748001F0068C0F30279B5FBF9FA02E061
:10170000DFF810A000BF00BF5046BDE8F087000022
:10171000083802400024F40000127A00F8B50446AC
:101720000025207800F0010000286FD0FD480068F7
:1017300000F00C0004281BD0FA48006800F00C00F0
:10174000082807D1F748001F006800F48000B0F5B2
:10175000800F0DD0F348006800F00C000C2813D166
:10176000F048001F006800F48000B0F5800F0BD136
:10177000EC4808380068C0F34040002859D0606841
:10178000002856D10120F8BD00BF6068B0F5803F49
:1017900008D1E4480838006840F48030E14908394D
:1017A00008601EE06068B0F5A02F0DD1DD48083854
:1017B000006840F48020DB4908390860084600686A
:1017C00040F4803008600CE0D6480838006820F407
:1017D0008030D449083908600846006820F4802029
:1017E000086000BF606890B1FFF7D6FB054606E0D1
:1017F000FFF7D2FB401B642801D90320C3E7C94887
:1018000008380068C0F340400028F1D011E0FFF72D
:10181000C3FB054606E0FFF7BFFB401B642801D968
:101820000320B0E7BF4808380068C0F340400028F4
:10183000F1D1207800F0020002286BD1B94800688D
:1018400000F00C00B8B1B748006800F00C000828A0
:1018500005D1B448001F006800F4800058B1B148B9
:10186000006800F00C000C281CD1AE48001F006876
:1018700000F48000B0B9AB4808380068C0F34000FD
:1018800020B1E068012801D001207CE7A548083894
:10189000006820F0F800216940EAC100A149083938
:1018A000086037E0E06800B301209F490860FFF757
:1018B00073FB054606E0FFF76FFB401B022801D9CA
:1018C000032060E7974808380068C0F3400000280C
:1018D000F1D094480838006820F0F800216940EA07
:1018E000C10090490839086014E000208E49086062
:1018F000FFF752FB054606E0FFF74EFB401B0228B0
:1019000001D903203FE7874808380068C0F340004A
:101910000028F1D1207800F0080008282CD1606957
:10192000A8B1012081490860FFF736FB054606E0B3
:10193000FFF732FB401B022801D9032023E7794837
:101940006C300068C0F340000028F1D014E00020A3
:1019500076490860FFF720FB054606E0FFF71CFB11
:10196000401B022801D903200DE76E486C30006847
:10197000C0F340000028F1D1207800F004000428D2
:1019800070D1002667483830006800F0805090B968
:1019900000BF0020009063483830006840F080505D
:1019A0006049383108600846006800F080500090B7
:1019B00000BF00BF01265E48006800F48070B0B927
:1019C0005B48006840F4807059490860FFF7E4FA0A
:1019D000054606E0FFF7E0FA401B022801D9032084
:1019E000D1E65348006800F480700028F2D000BFB0
:1019F000A068012808D14B486830006840F0010019
:101A00004849683108601DE0A06805280DD14548A7
:101A10006830006840F004004249683108600846B8
:101A2000006840F0010008600CE03E486830006843
:101A300020F001003B49683108600846006820F04A
:101A40000400086000BFA068A8B1FFF7A5FA05462A
:101A500009E0FFF7A1FA401B41F28831884202D920
:101A6000032090E626E02F4868300068C0F340006D
:101A70000028EED013E0FFF78FFA054608E0FFF7E5
:101A80008BFA401B41F28831884201D903207AE663
:101A9000244868300068C0F340000028EFD1012ED0
:101AA00007D120483830006820F080501D49383177
:101AB000086000BFA069E8B31A48006800F00C0095
:101AC000082862D0A06902284AD100201649086679
:101AD000FFF762FA054606E0FFF75EFA401B0228B0
:101AE00001D903204FE60F4808380068C0F3406072
:101AF0000028F1D1D4E907010843616A40EA811165
:101B00000122A06AC2EB500041EA00412C20005D96
:101B100041EA00613020005D41EA00700149091F7F
:101B2000086008E00838024000004742800E474243
:101B3000007000402BE0012016490866FFF72CFAE0
:101B4000054606E0FFF728FA401B022801D90320CA
:101B500019E611480068C0F340600028F2D016E092
:101B600000200C490866FFF717FA054606E0FFF764
:101B700013FA401B022801D9032004E60648006836
:101B8000C0F340600028F2D101E00120FBE5002015
:101B9000F9E50000000047420038024070B50446F5
:101BA0002546681EB0F1807F01D301200FE0681E3A
:101BB0004FF0E02148610F214FF0FF3001F0D2F8E3
:101BC00000204FF0E021886107200861002070BDEF
:101BD0002DE9F0410446A78D09488068A18DB0FB2E
:101BE000F1F201FB12057E1B05488068811904484B
:101BF0008160A16A4819314601F0ACFDBDE8F08171
:101C0000683B00202DE9F041044694F82C0000F0D8
:101C10000100A18D00EB610709488068A18DB0FB30
:101C2000F1F201FB12057E1B05488068811904480A
:101C30008160A16A4819314601F08CFDBDE8F08150
:101C4000683B00202DE9F0410446A08D616B0968D6
:101C50004968471A09488068A18DB0FBF1F201FB81
:101C60001206BD1B05488068411904488160A16ABD
:101C70008819294601F06EFDBDE8F081683B00201F
:101C800010B586B0044600BF00BF002000904A484F
:101C9000006840F40030484908600846006800F4D5
:101CA0000030009000BF00BF00BF002000904248FD
:101CB0001038006840F400103F49103908600846A9
:101CC000006800F40010009000BF00BF00BF0020BB
:101CD00000900846006840F001000860084600686F
:101CE00000F00100009000BF00BF00BF0C20019079
:101CF000022002900020039003200490072005900A
:101D000001A92E48FFF74AF82D482E4908604FF0E8
:101D10000060486000212B48816081614FF4806140
:101D200001618910C16100214161C1604FF400313E
:101D30000162FEF773FF00BF22486063846300BF47
:101D4000002206211020FFF7DDFA1020FFF7CAFA63
:101D50001B4818301C4908604FF000604860402163
:101D600019488160002181614FF480610161002187
:101D7000C1614161C16001624162FEF74FFF00BF76
:101D800011482063846300BF002206211120FFF761
:101D9000B9FA1120FFF7A6FA002206212620FFF744
:101DA000B1FA2620FFF79EFA2068C06840F01000C4
:101DB0002168C86006B010BD4038024000000240F3
:101DC00088600240A8090020080A00201CB50446CB
:101DD00000200190204600F068F80190019800B9B9
:101DE0001CBD0198042822D004DC012807D0022859
:101DF00036D110E0082826D0102831D12FE000BFBE
:101E000000200090206800680090206840680090E2
:101E100000BF00BF25E000BF0020009020680068E0
:101E2000009020684068009000BF00BF19E000BF2C
:101E300000200090206800680090206840680090B2
:101E400000BF00BF0DE000BF0020009020680068C8
:101E5000009020684068009000BF00BF01E000E0F3
:101E600000BF00BF606B68B104E000BF002084F8D1
:101E7000380000BFA28D2046A16A00F011F90028A9
:101E8000F3D110E004E000BF002084F8380000BF68
:101E9000A08DE38DC01AA36A191AA28D204600F006
:101EA00061F90028EFD100BF9AE70146C86B70477F
:101EB0002DE9F0470446206805682068C668206858
:101EC00047694FF00008C14605F00F08B8F1000F50
:101ED0000AD105F0200038B106F0200020B12046DC
:101EE00000F01AFCBDE8F087B8F1000F72D007F0DF
:101EF000010018B906F4907000286BD005F00100BD
:101F000030B106F4807018B1E06B40F00100E0637E
:101F100005F0040030B107F0010018B1E06B40F0AB
:101F20000200E06305F0020030B107F0010018B1D3
:101F3000E06B40F00400E06305F0080048B106F0F3
:101F4000200010B907F0010018B1E06B40F0080064
:101F5000E063E06B70B305F0200028B106F02000CC
:101F600010B1204600F0D8FB20684069C0F380190A
:101F7000E06B00F0080010B9B9F1000F23D0204643
:101F800000F0A0FB2068406900F04000402816D116
:101F90002068406920F0400021684861606B50B1C2
:101FA0001748616B0865606BFEF704FD10B1606B4C
:101FB000016D88470CE02046FFF708FF08E0204647
:101FC000FFF704FF04E02046FFF700FF0020E06376
:101FD00088E7FFE705F0800030B106F0800018B117
:101FE000204600F0E1FD7DE705F0400030B106F04D
:101FF000400018B1204600F075FB73E700BF71E7A1
:10200000C925000810B504460CB9012010BDA0690F
:1020100000B100E000BF94F8390028B9002084F82E
:102020003800204600F028F8242084F83900206881
:10203000C06820F400502168C860204600F0C0FB52
:102040002068006920F49040216808612068406998
:1020500020F02A00216848612068C06840F40050E0
:102060002168C8600020E063202084F8390084F8EB
:102070003A000020CAE7000010B50446064920686F
:10208000884208D005492068884204D101F0F0FA5E
:102090002046FFF7F5FD10BD001001400044004050
:1020A00077B581B00446154694F83A00202850D1FF
:1020B000029800B115B9012004B070BD00BF94F8BA
:1020C0003800012801D10220F6E7012084F8380009
:1020D00000BF0298A062A5850020E063222084F85A
:1020E0003A001D48616BC8631C48616B08641C485A
:1020F000616BC8640020616B086502AE32682368BA
:10210000191D2B46606BFEF7FFFD00BF00200090FD
:1021100020680068009020684068009000BF00BF01
:1021200000BF002084F8380000BF2068C06840F479
:1021300080702168C8602068406940F00100216813
:1021400048612068406940F04000216848610020F3
:10215000B2E70220B0E700002D2600087326000831
:10216000DD25000810B5034693F83A0020282FD14A
:1021700001B10AB9012010BD00BF93F83800012851
:1021800001D10220F7E7012083F8380000BF9962EF
:102190009A85DA850020D863222083F83A0000BFB0
:1021A000002083F8380000BF1868C06840F48070D1
:1021B0001C68E0601868406940F001001C686061BC
:1021C0001868C06840F020001C68E0600020D2E77A
:1021D0000220D0E710B50446606B18B9A18DA06A43
:1021E000401AA06216492068884206D01549206826
:1021F000884202D12046FFF7EBFC606B90B1606B28
:10220000C069B0F5807F1AD004E000BF002084F8D8
:10221000380000BFA28D2046A16AFFF741FF0028C9
:10222000F3D10CE004E000BF002084F8380000BFC8
:10223000A28D2046A16AFFF795FF0028F3D110BDBB
:10224000001001400044004010B50446A08D012854
:1022500000D110BD06492068884206D00549206893
:10226000884202D12046FFF7CDFC00BFF1E7000015
:102270000010014000440040F7B50446154694F8AC
:10228000390020283DD1019800B10DB90120FEBDD3
:1022900000BF94F83800012801D10220F7E701209F
:1022A00084F8380000BF01982062A584E5840020EE
:1022B000E063212084F839001348216BC863134878
:1022C000216B08641248216BC8640020216B0865EB
:1022D00001AE23681A1D31682B46206BFEF714FDF2
:1022E0006FF040002168086000BF002084F83800CB
:1022F00000BF2068406940F08000216848610020EC
:10230000C5E70220C3E7000081260008B7260008C1
:10231000DD25000810B5034693F83900202823D1A5
:1023200001B10AB9012010BD00BF93F8380001289F
:1023300001D10220F7E7012083F8380000BF1962BD
:102340009A84DA840020D863212083F8390000BF02
:10235000002083F8380000BF1868C06840F0800093
:102360001C68E0600020DEE70220DCE710B50446D0
:1023700005492068884205D004492068884201D177
:1023800001F014F910BD00000010014000440040AD
:10239000704700BFFEE7000008B500BF00200090B6
:1023A0000E48006840F400100C49086008460068B8
:1023B00000F40010009000BF00BF00221146102062
:1023C000FEF7A0FF1020FEF78DFF0022114611201E
:1023D000FEF798FF1120FEF785FF08BD3038024058
:1023E00000B587B0142102A8FDF78CFF00BF0020C4
:1023F00001902748006840F08000254908600846A1
:10240000006800F08000019000BF00BF00BF002006
:1024100001900846006840F0010008600846006826
:1024200000F00100019000BF00BF00BF002001903C
:102430000846006840F0020008600846006800F0A6
:102440000200019000BF00BF002220211148FEF7CA
:102450009DFD00224FF400510F48FEF797FD20200C
:1024600002900120039000200490059002A90948E1
:10247000FEF794FC4FF400500290012003900020DE
:102480000490059002A90448FEF788FC07B000BD3F
:1024900030380240000002400004024010B50B48F2
:1024A0000B4908600B484860002109488160C16001
:1024B0004FF480410161002141618161C16101628C
:1024C000FEF770FD08B1FEF725F810BD005400407E
:1024D0002C000020801A060000BFFEE700BFFEE7C8
:1024E0007047704710B5FEF789FE10BD00B593B078
:1024F000342106A8FDF706FF142101A8FDF702FF0D
:1025000000BF002000902748006840F08050254917
:1025100008600846006800F08050009000BF00BFCF
:1025200000BF002000902048006840F440401E4951
:1025300008600846006800F44040009000BF00BFFB
:10254000012006900004079002200C9041050D9197
:1025500008210E914FF4B4710F9102211091119145
:10256000129106A8FFF7DAF808B1FDF7D3FFFEF7DE
:102570001BFF08B1FDF7CEFF0F2001900220029053
:10258000002003904FF4A05004904FF48050059029
:10259000052101A8FEF74EFF08B1FDF7BBFF13B000
:1025A00000BD00004038024000700040054800684F
:1025B00040F47000034908604FF000600149803921
:1025C0000860704788ED00E070B50546AC6B0020F0
:1025D000E085E0842046FFF7F9FB70BD70B5064644
:1025E0000025B46B20684069C0F3C01594F8390029
:1025F000212805D125B10020E084204600F082F892
:1026000020684069C0F3801594F83A00222805D16B
:1026100025B10020E085204600F054F8E06B40F042
:102620001000E0632046FFF7D1FB70BD70B5054692
:10263000AC6B2868006800F48070B0B90020E085B9
:102640002068C06820F480702168C86020684069F4
:1026500020F00100216848612068406920F04000B6
:1026600021684861202084F83A002046FFF7B2FD37
:1026700070BD70B50446A56B2846FFF7E5FD70BD3B
:1026800070B50546AC6B2868006800F4807070B9BE
:102690000020E0842068406920F0800021684861C3
:1026A0002068C06840F040002168C86002E0204611
:1026B000FFF75CFE70BD70B50446A56B2846FFF7BA
:1026C00067FE70BD0168C96821F490710268D1602D
:1026D0000168496921F0010102685161202180F8F7
:1026E0003A10704710B504462068C06820F04000DA
:1026F0002168C860202084F839002046FFF736FEA4
:10270000002010BD0168C96821F0C0010268D160D5
:10271000202180F83910704770B5044694F83A00CB
:1027200022284AD1A068B0F5805F13D1A56A20693C
:1027300040B920684068C0F308002880A06A801C67
:10274000A06219E020684068C0B22880A06A401CDE
:10275000A06211E0206938B920684068C1B2A26A5D
:10276000501CA062117007E02068406800F07F01F3
:10277000A26A501CA0621170E08D401E80B2E085FC
:10278000C8B92068C06820F020002168C8602068AF
:10279000C06820F480702168C8602068406920F01B
:1027A000010021684861202084F83A002046FFF7A4
:1027B00011FD002070BD0020FCE70220FAE70000B8
:1027C0002DE9F84F04462068006920F44050E16884
:1027D0000843216808612169A068084361690843CA
:1027E000E169084300902068C06849F20C618843A1
:1027F000009908432168C8602068406920F440704F
:10280000A169084321684861E069B0F5004F75D1BE
:10281000E3492068884203D0E249206888426FD1AA
:10282000FEF7E0FE814602206168A0FB01510B46E5
:102830001920A9FB00712A463846FDF719FD6421CD
:10284000B0FBF1F04FEA001A02206168A0FB0151D1
:102850000B461920A9FB00712A463846FDF708FDF2
:10286000074602206168A0FB01510B461920A9FB15
:1028700000B12A465846FDF7FBFC6421B0FBF1F09D
:1028800000EBC00101EB0010A7EB8000322101EB4F
:10289000C0006421B0FBF1F000F0F8000AEB400A40
:1028A00002206168A0FB01510B461920A9FB0071B1
:1028B0002A463846FDF7DCFC074602206168A0FB8B
:1028C00001510B461920A9FB00B12A465846FDF7D5
:1028D000CFFC6421B0FBF1F000EBC00101EB001074
:1028E000A7EB8000322101EBC0006421B0FBF1F0C6
:1028F00000F007005044216888604FE16EE0FFE778
:10290000FEF760FE814602206168A0FB01510B4684
:102910001920A9FB00712A463846FDF7A9FC64215D
:10292000B0FBF1F04FEA001A02206168A0FB0151F0
:102930000B461920A9FB00712A463846FDF798FC82
:10294000074602206168A0FB01510B461920A9FB34
:1029500000B12A465846FDF78BFC6421B0FBF1F02C
:1029600000EBC00101EB0010A7EB8000322101EB6E
:10297000C0006421B0FBF1F000F0F8000AEB400A5F
:1029800002206168A0FB01510B461920A9FB0071D0
:102990002A463846FDF76CFC074602206168A0FB1A
:1029A000015003461920A9FB00B12A465846FDF7FD
:1029B0005FFC6421B0FBF1F000EBC00101EB001003
:1029C000A7EB8000322101EBC0006421B0FBF1F0E5
:1029D00000F00700504421688860DFE070492068FB
:1029E000884203D06F49206888426BD1FEF7FAFD18
:1029F000814604206168A0FB01510B461920A9FB08
:102A000000712A463846FDF733FC8246042061688F
:102A1000A0FB01510B461920A9FB00712A4638463C
:102A2000FDF726FC6421B0FBF1F000EBC00101EBE7
:102A30000010AAEB8000322101EB00106421B0FBF2
:102A4000F1F000F0F00A04206168A0FB0150034699
:102A50001920A9FB00712A463846FDF709FC6421BC
:102A6000B0FBF1F00AEB001A04206168A0FB0151F1
:102A70000B461920A9FB00712A463846FDF7F8FBE2
:102A8000074604206168A0FB015003461920A9FBFA
:102A900000B12A465846FDF7EBFB6421B0FBF1F08C
:102AA00000EBC00101EB0010A7EB8000322101EB2D
:102AB00000106421B0FBF1F000F00F0050442168D9
:102AC00088606BE0FEF77EFD814604206168A0FB14
:102AD000015003461920A9FB00712A463846FDF72C
:102AE000C7FB824604206168A0FB01500346192001
:102AF000A9FB00712A463846FDF7BAFB6421B0FBFA
:102B0000F1F000EBC00101EB0010AAEB80003221D4
:102B100001EB00106421B0FBF1F000F0F00A04209A
:102B20006168A0FB015003461920A9FB00712A46E9
:102B30003846FDF79DFB6421B0FBF1F00AEB001A6B
:102B400004206168A0FB017003461920A9FB005016
:102B500001463A462846FDF78BFB0746042061688C
:102B6000A0FB015003461920A9FB00B12A46584694
:102B7000FDF77EFB6421B0FBF1F000EBC00101EB3F
:102B80000010A7EB8000322101EB00106421B0FBA4
:102B9000F1F000F00F00504421688860BDE8F88F24
:102BA0000010014000140140014691F8390021282D
:102BB0002CD18868B0F5805F0FD10A6A1088C0F305
:102BC00008000B685860086918B9086A801C086218
:102BD00009E0086A401C086205E00B6A581C08629C
:102BE00018780B685860C88C401E80B2C88458B9E9
:102BF0000868C06820F080000B68D8600868C0686A
:102C000040F040000B68D860002070470220FCE7CD
:102C100008B50F480068006800F01000102813D1B4
:102C200000BF002000900A48006800680090084833
:102C300000684068009000BF00BF0648006818B1F7
:102C400003480449096888470148FFF731F908BD7E
:102C50006809002010000020004870476809002023
:102C600001490860704700001000002010B50446BC
:102C700015481649086008464460002181610C210E
:102C800041610021C1610161C1608160FFF7BAF952
:102C900010B10FA000F03AF80C48406B48B14FF467
:102CA000807210490948FFF7FBF90FA000F02EF8D9
:102CB00008E04FF480720B490448FFF753FA0EA066
:102CC00000F024F810BD0000004400406809002016
:102CD0007561727420696E6974206661696C6564DF
:102CE0002E2E0A00680A00207561727420656E61DC
:102CF000626C650A0000000075617274204944200E
:102D0000656E61626C650A0000BFFEE70FB4054B9B
:102D100010B503A9044A029800F09EF810BC5DF8B3
:102D200014FB00005D300008200000200FB4084BA9
:102D300010B504A902AA039800F08EF8044602A96F
:102D4000002000F065F9204610BC5DF814FB00007F
:102D50001130000802480068C0F3022070470000EC
:102D60000CED00E010B5002804DB0A07130E054A3D
:102D7000135406E00A07140E034A00F00F031B1F4A
:102D8000D45410BD00E400E018ED00E030B528B1E7
:102D9000144C031F002021680A4605E0084630BD98
:102DA0009A4203D810465268002AF9D1002800D070
:102DB00041680BD00468A3EB0005A54204D11B6851
:102DC0001C440346046002E0436000E023603AB123
:102DD0001C68D51AA54203D115682C441C605268A2
:102DE0005A6030BD240000202DE9F04782460F4C88
:102DF00010480D4E0E4F001B4FF0000820F0070545
:102E00004FF0010900221146504600F037F9002822
:102E100002D1306810B10020BDE8F0873C60C4E901
:102E20000058C6F80090EDE7280000202C44002050
:102E300024000020284C002002E008C8121F08C10E
:102E4000002AFAD170477047002001E001C1121F2B
:102E5000002AFBD1704700002DE9FF4F8BB09A4646
:102E60000F460546002606E025280BD052460D9950
:102E700090476D1C761C28780028F5D10FB030469D
:102E8000BDE8F08F0024A0460122604900E0044321
:102E900015F8013F203B02FA03F00842F7D12878E9
:102EA0002E2817D115F8010F44F004042A280ED05B
:102EB0006FF02F022878A0F1300109290AD808EB19
:102EC000880102EB410100EB01086D1CF2E757F8A5
:102ED000048B6D1C287869283ED006DC0028CDD0F4
:102EE00063280BD0642804D136E0732810D07528ED
:102EF0004BD052460D999047761C85E017F8040B8D
:102F00008DF8000000208DF80100E946012003E063
:102F100057F8049B4FF0FF3061074FF0000401D4D5
:102F20000AE0641C44450DDA8442FADB19F8041007
:102F30000029F6D106E0641C8442FCDB19F8041079
:102F40000029F8D1264404E019F8010B52460D99E6
:102F50009047641EF8D257E001CF4FF00A0B0028CB
:102F600002DA40422D2102E0210504D52B218DF803
:102F70002410012103E0E10705D02021F7E70DF13E
:102F8000200908910CE00021F9E701CF4FF00A0B6E
:102F9000F9E75946FDF7DFF901F1300209F8012D93
:102FA0000028F6D1ADEB090000F1200B600701D439
:102FB0004FF00108D84502DDA8EB0B0000E000202F
:102FC0008046002406E009A85246005D0D9990470E
:102FD000641C761C08988442F5DB04E030205246DD
:102FE0000D999047761CB8F10001A8F10108F5DCB5
:102FF00005E019F8010B52460D999047761CBBF17C
:103000000001ABF1010BF4DC6D1C34E70928010071
:103010000A68531C0B601070704730B502464FF6BB
:10302000FF7018E012F8015B80EA052008230FE02A
:1030300000F400443CB14FF6FF7404EA400041F252
:103040002104604003E04FF6FF7404EA40005B1E79
:10305000002BEDD1491E0029E4D130BD70B50546E5
:103060000C460548844203D1284600F0A9F970BDFA
:103070004FF0FF30FBE70000200000202DE9F04179
:103080000B3020F00706104D19E02068B04215D330
:10309000B0420AD9871B201DD4F80480FDF719F926
:1030A000A019C0E90078286004E060682860201D4D
:1030B000FDF70FF9201D2660BDE8F081251D2C6865
:1030C000002CE2D10020F7E72400002070B5044670
:1030D0000D4616462A46214601A0FFF717FE70BD91
:1030E0006B65793A2025732076616C75653A2025E9
:1030F000730A00001CB500BF0020019013A00068F7
:10310000009001210F20FDF783FBFDF715FCFEF772
:1031100081F8FFF7EBF9FFF763F9FFF73DF9FFF7E8
:10312000BDF94FF4E130FFF7A1FD00F071F90CE0BB
:1031300000F042FA4FF4FD61054800F089FA0446B8
:103140001CB12146024800F0E3FAF1E70820000034
:10315000800100202DE9F04704008A4616D054F87B
:10316000047CD4F800903E1F564500D956462046B0
:10317000FFF70CFE05468846324621465046FFF7CB
:103180007DFF40B1C0F80090BDE8F087BDE8F04792
:103190000846FFF729BE44E9017955B129686A1844
:1031A000211F8A4202D9611B091F2960C5F80480CA
:1031B000EAE7024AC2F80080E6E7000024000020A7
:1031C0002DE9F04106460D4617465EB1284620B16E
:1031D000411E014009B9012100E0002111B9002080
:1031E000BDE8F0811C20FFF7FFFD04460CB900206C
:1031F000F6E7B5F1004F01D36FF000452846401EB9
:1032000040EA500040EA900040EA101040EA1020E6
:1032100040EA1040411C0D466EB92846FFF7E4FD18
:103220002061206920B92046FFF7B0FD0020D7E7D4
:103230000120606102E02661002060610020606082
:103240002060A560681EE06027762046C8E72DE96B
:10325000F84F04468846914660682168401A0090FD
:10326000207E00BB04264FF0000B2068E168084078
:10327000A168081AB04206D22068E1680840A16837
:10328000A1EB000B5E44009810B90020BDE8F88F58
:1032900020685844E168084021690D58A94501D2C9
:1032A0000020F3E70BE000260098814501D9009843
:1032B00000E0484605460DB90020E7E700BF00BF23
:1032C00020683044E16800EA0107A068C01BA842FA
:1032D00002D2A068C01B00E0284682462069C119BE
:1032E00052464046FCF7F5FFA5EB0A0208EB0A0040
:1032F0002169FCF7EEFF2068A919084420602846E0
:10330000C4E72DE9F74F0446174660682168401A64
:10331000A168A1EB000B207E08BB04264FF0000A39
:103320006068E1680840A168081AB04206D2606887
:10333000E1680840A168A1EB000A5644B819584555
:1033400002D90020BDE8FE8F3D460DB90020F9E707
:1033500060685044E168084021690D500AE0002689
:103360005F4501D9584600E0384605460DB90020B2
:10337000E8E700BF00BF60683044E16800EA010888
:10338000A068A0EB0800A84203D2A068A0EB080048
:1033900000E028468146216901EB08004A46019970
:1033A000FCF797FFA5EB0902019B03EB09012069DC
:1033B000FCF78FFF6068A919084460602846C1E7E0
:1033C00010B504460F480068082802D34FF0FF30BC
:1033D00010BD0C4802680068401C0A4B18600A487F
:1033E000845418460068082801D00A2C08D10548E2
:1033F000054902680548FDF7E6F800200149086024
:103400002046E5E7140000201800002000FE02001E
:1034100070B5C2B05F2231A14FF46F40FDF7B0F834
:103420000A200CF0A1FE064631A236A130460CF06F
:10343000B8FE39A23AA130460CF0B3FE3DA23FA13E
:1034400030460CF0AEFE3FA240A130460CF0A9FE83
:103450000546002410E022463DA101A8FFF766FCC6
:1034600001AA01A930460CF09CFE05462A462146D9
:1034700038A0FFF74BFC641C082CECDB2A463BA170
:103480003DA0FFF743FC752238A140A0FFF73EFCAA
:1034900041A22EA130460CF084FE05462A4633A1F7
:1034A00035A0FFF733FCFF2302AA16A130460CF02B
:1034B00022FE054602A939A0FFF728FC00223A495E
:1034C00030460CF0F1FD30460CF0C3FD852203A11F
:1034D0004EF62070FDF754F842B070BD2E2E2F43EB
:1034E0006F72652F5372632F6D61696E2E630000DA
:1034F00054657374204170706C69636174696F6E98
:10350000000000006170706C69636174696F6E2007
:103510006E616D6500000000312E302E300000001D
:103520006170706C69636174696F6E207665727327
:10353000696F6E003935304D687A00005253534937
:10354000000000002D31383000000000505700000E
:103550002564000074686520726573756C74282595
:103560006429203D2025640A0000000031333A32EE
:10357000333A31390000000025733A3E72657375A5
:103580006C74203D2025640A000000002025733A59
:103590002025640A000000003930000076616C7557
:1035A000653A2025730A0000CD300008012101484A
:1035B000C1607047683B00202DE9F041FFF74CFBEC
:1035C00007461948C06800282BD0184D4FF4806674
:1035D00005B10EB9002005E0154932464868294674
:1035E000FFF735FE0446E4B100210F48C1600069D1
:1035F000012802D0022813D105E0A2B20B493846B7
:10360000FEF788FE0CE0386B20B90AA0FFF77EFBBE
:1036100000BFFEE7A2B205493846FEF72DFE00BF07
:1036200000BFBDE8F0810000683B00207C3B00202B
:10363000682B00207561727431206E6F7420656E86
:1036400061626C6520646D612074782E0A00000050
:1036500070B504460D4604B10DB9002070BD034994
:103660002A4608682146FFF7F2FDF7E7680B0020BD
:1036700010B50021144881600121C160022101615F
:10368000012209031148FFF79BFD1049091F08603B
:103690000846006820B90EA0FFF738FB00BFFEE720
:1036A000012211031148FFF78BFD104908394860CA
:1036B0000846406820B90EA0FFF728FB00BFFEE7D0
:1036C0001248FFF7CDFA10BD683B00206C0B0020BC
:1036D0007561727431207278206669666F20696E38
:1036E0006974206661696C65642E0A00702B002085
:1036F0007561727431207478206669666F20696E16
:103700006974206661696C65642E0A00451C0008B6
:1037100070B505460C4605B104B970BD074922468F
:1037200048682946FFF7EDFD0646A64203D0044946
:1037300004A0FFF7EBFA00BFEFE70000682B0020C2
:10374000CC37000825732069732066756C6C2E0ACF
:103750000000000070B505460C4605B104B970BD07
:103760000749224608682946FFF7CBFD0646A642D0
:1037700003D0044904A0FFF7C9FA00BFEFE7000037
:10378000680B0020B8370008257320697320667520
:103790006C6C2E0A000000000006101600061016C1
:1037A00000000000000000000102030406070809F1
:1037B000000000000102030475617274315F7772CA
:1037C0006974655F72785F6669666F0075617274AF
:1037D000315F7772697465000100010140000000EB
:1037E000803F0020804300200044002000000000B3
:1037F00010380008000000202C000000382E0008BF
:103800003C3800082C000020FC530000482E000823
:103810000000000010000000010000000024F4007F
:103820000000000000000000000000000000000098
:0C3830000000000000000000000000008C
:020000040801F1
:100000002DE9F041054688462F6817B90020BDE864
:10001000F0816C6800260CE0206840B1606830B167
:1000200041462068F0F780F908B92046EFE7083428
:10003000761CBE42F0D30020E9E7014641F20550AC
:1000400002E000EB4013981811F8012B002AF8D1B8
:1000500070472DE9F04704460CB9BDE8F087D4F8A5
:1000600000906568002615E0D5F800A06F684FF095
:10007000000808E03868F2F789FE7868F2F786FE33
:10008000083708F10108D045F4D36868F2F77EFE1E
:100090000835761C4E45E7D36068F2F777FE2046B8
:1000A000F2F774FE00BFD8E72DE9F74F04460E467D
:1000B00014B90020BDE8FE8F0EB90020FAE765688C
:1000C000D4F800A0002712E0D5F80480D5F800B0DD
:1000D0004FF0000907E0D8E90001029AB04708F1A3
:1000E000080809F10109D945F5D308357F1C5745A2
:1000F000EAD30120DEE72DE9F04705460F46164614
:10010000984615B90020BDE8F0870FB90020FAE73E
:100110003846FFF792FF2968B0FBF1F201FB1209A4
:10012000686800EBC90A39465046FFF769FF044684
:100130000CB90020E7E73EB9B8F1000F04D16068C0
:10014000F0F7EBF8401CDEE70EB90020DBE7606853
:10015000F0F7E3F8404501D30020D4E7304661686A
:10016000F0F7F0F80120CEE770B505460820F2F769
:100170003BFE04460CB9002070BD25602168C80014
:10018000F2F732FE6060606820B92046F2F7FEFDAB
:100190000020F1E72268D1006068F0F7B3F820464C
:1001A000EAE72DE9F74F84B0064617461EB900204E
:1001B00007B0BDE8F08F059800B10FB90020F7E750
:1001C0000598F0F7AAF803903846F0F7A6F88046AD
:1001D0000598FFF732FF3168B0FBF1F201FB120026
:1001E00002907168029801EBC00420460599FFF760
:1001F00007FF051E17D06868F0F78FF840450CD24E
:1002000008F101016868F2F7A5FF8246BAF1000F14
:1002100001D10020CCE7C5F804A039466868F0F7A2
:1002200091F80120C4E70399481CF2F7DDFD8346ED
:10023000BBF1000F01D10020BAE708F10100F2F78D
:10024000D3FD0190019820B95846F2F79FFD002098
:10025000AEE7206880B90820F2F7C6FD60606068EC
:1002600038B95846F2F792FD0198F2F78FFD002059
:100270009EE70120206016E02268521CD1006068D1
:10028000F2F768FF8146B9F1000F07D15846F2F73F
:100290007DFD0198F2F77AFD002089E7C4F804900B
:1002A0002068401C2060D4E90001401E01EBC0051D
:1002B000C5F800B00198686028680599F0F742F821
:0C02C00039466868F0F73EF8012071E74D
:04000005080001C529
:00000001FF
